:100000000C945D000C9470020C9489030C94850090
:100010000C9485000C9485000C9485000C9485004C
:100020000C9485000C9485000C9485000C9485003C
:100030000C9485000C9485000C9485000C9485002C
:100040000C94CE010C9485000C943E020C94180282
:100050000C9485000C9485000C9485000C9485000C
:100060000C9485000C94850000000008000201003B
:100070000003040700000000000000000000000072
:10008000250028002B0000000000240027002A0083
:10009000040404040404040402020202020203032E
:1000A0000303030301020408102040800102040836
:1000B0001020010204081020650411241FBECFEF98
:1000C000D8E0DEBFCDBF21E0A0E2B1E001C01D92CB
:1000D000AB3CB207E1F711E0A0E0B1E0EAEDFDE0F2
:1000E00002C005900D92A032B107D9F710E0CDE51E
:1000F000D0E004C02197FE010E94F304CC35D10763
:10010000C9F70E94AD030C94EB060C940000AF926B
:10011000BF92CF92DF92EF92FF920F931F93CF93F4
:10012000DF936C017B018B01040F151FEB015E0156
:10013000AE18BF08C017D10759F06991D601ED91EB
:10014000FC910190F081E02DC6010995892B79F78A
:10015000C501DF91CF911F910F91FF90EF90DF903C
:10016000CF90BF90AF900895FC01538D448D252F03
:1001700030E0842F90E0821B930B541710F0CF9641
:10018000089501970895FC01918D828D981761F073
:10019000A28DAE0FBF2FB11D5D968C91928D9F5F8A
:1001A0009F73928F90E008958FEF9FEF0895FC0169
:1001B000918D828D981731F0828DE80FF11D858D1C
:1001C00090E008958FEF9FEF0895FC01918D228DAF
:1001D000892F90E0805C9F4F821B91098F73992734
:1001E000089581E291E00E94E50021E0892B09F465
:1001F00020E0822F089580E090E0892B29F00E9472
:10020000F10081110C9400000895FC01A48DA80F49
:10021000B92FB11DA35ABF4F2C91848D90E0019648
:100220008F739927848FA689B7892C93A089B18968
:100230008C91837080648C93938D848D981306C009
:100240000288F389E02D80818F7D80830895EF926D
:10025000FF920F931F93CF93DF93EC0181E0888F80
:100260009B8D8C8D98131AC0E889F989808185FF50
:1002700015C09FB7F894EE89FF896083E889F989F2
:1002800080818370806480839FBF81E090E0DF91F4
:10029000CF911F910F91FF90EF900895F62E0B8D47
:1002A00010E00F5F1F4F0F731127E02E8C8D8E1102
:1002B0000CC00FB607FCFACFE889F989808185FF69
:1002C000F5CFCE010E940501F1CFEB8DEC0FFD2F94
:1002D000F11DE35AFF4FF0829FB7F8940B8FEA8924
:1002E000FB8980818062CFCFCF93DF93EC01888D33
:1002F0008823B9F0AA89BB89E889F9898C9185FDA1
:1003000003C0808186FD0DC00FB607FCF7CF8C912E
:1003100085FFF2CF808185FFEDCFCE010E940501E0
:10032000E9CFDF91CF9108950F931F93CF93DF9380
:10033000EC0188819981009759F02A813B81261729
:10034000370730F081E0DF91CF911F910F91089531
:100350008B016F5F7F4F0E941E06009759F09983B3
:1003600088831B830A832C813D81232B59F7FC0151
:100370001082E8CF80E0E7CFCF93DF93EC01888154
:100380009981009711F00E949505198218821D82AB
:100390001C821B821A82DF91CF9108951F920F92C7
:1003A0000FB60F9211242F933F938F939F93AF9388
:1003B000BF938091C3019091C401A091C501B091F8
:1003C000C6013091C20123E0230F2D3758F5019665
:1003D000A11DB11D2093C2018093C3019093C4015C
:1003E000A093C501B093C6018091BE019091BF0159
:1003F000A091C001B091C1010196A11DB11D8093D2
:10040000BE019093BF01A093C001B093C101BF9101
:10041000AF919F918F913F912F910F900FBE0F90B1
:100420001F90189526E8230F0296A11DB11DD2CF6B
:100430001F920F920FB60F9211242F933F934F9359
:100440005F936F937F938F939F93AF93BF93EF933C
:10045000FF9381E291E00E940501FF91EF91BF912E
:10046000AF919F918F917F916F915F914F913F914C
:100470002F910F900FBE0F901F9018951F920F9203
:100480000FB60F9211242F938F939F93EF93FF93A7
:10049000E0913101F09132018081E0913701F091DA
:1004A000380182FD1BC0908180913A018F5F8F736C
:1004B00020913B01821741F0E0913A01F0E0EF5DBD
:1004C000FE4F958F80933A01FF91EF919F918F910D
:1004D0002F910F900FBE0F901F9018958081F4CF31
:1004E0001F920F920FB60F921124CF92DF92EF92CC
:1004F000FF920F931F932F933F934F935F936F93AD
:100500007F938F939F93AF93BF93EF93FF93CF937B
:10051000DF93CDB7DEB72F97DEBFCDBF909120011F
:1005200081E0911180E08093200120912001E5E796
:10053000F0E09491E1EBF0E08491EDE9F0E0E491FA
:10054000EE23E9F0992359F0933009F4B2C008F092
:10055000A5C0913009F4B3C0923009F4B4C0F0E002
:10056000EE0FFF1FE458FF4FA591B4919FB7F89489
:10057000EC912111B5C080958E238C939FBF809103
:1005800020011B861A861D861C861F861E864AE051
:100590008E010F5F1F4FB80190E00E949204F80196
:1005A00001900020E9F731977F01E01AF10AB701C5
:1005B000CE010A960E949401811194C0CE010A9640
:1005C0000E94BC011A8219821C821B821E821D821B
:1005D00064E070E0C8010E94940181118BC0C801E1
:1005E0000E94BC01CA84DB84C114D10409F48DC00B
:1005F000EE84FF84E114F104B1F08D819E81E80E58
:10060000F91EB701C8010E949401882309F47DC036
:1006100029813A818D819E81B601820F931F0E94AC
:10062000E406FE82ED824D815E8169817A8181E2FC
:1006300091E00E94870042E050E06DE171E081E2CC
:1006400091E00E94870089819A81009711F00E94B1
:1006500095058A859B85009711F00E9495052F9638
:100660000FB6F894DEBF0FBECDBFDF91CF91FF91E3
:10067000EF91BF91AF919F918F917F916F915F911A
:100680004F913F912F911F910F91FF90EF90DF902D
:10069000CF900F900FBE0F901F9018959730B1F02C
:1006A0009830D1F0943009F05ACF909180009F7D1E
:1006B00003C0909180009F779093800050CF94B5B5
:1006C0009F7794BD4CCF94B59F7DFBCF9091B000A8
:1006D0009F779093B00043CF9091B0009F7DF9CF6A
:1006E0008E2B4BCFFF86EE86B8018A859B850E94B4
:1006F000E40668CF84E090E09E838D8368E171E03A
:1007000089819A810E94E4066DCFC8010E94BC01D4
:100710008ACF1F920F920FB60F9211242F933F93FF
:100720004F935F936F937F938F939F93AF93BF93F9
:10073000EF93FF930E947002FF91EF91BF91AF91F1
:100740009F918F917F916F915F914F913F912F91E9
:100750000F900FBE0F901F901895789484B582600B
:1007600084BD84B5816084BD85B5826085BD85B555
:10077000816085BD80916E00816080936E001092D3
:10078000810080918100826080938100809181004E
:1007900081608093810080918000816080938000DF
:1007A0008091B10084608093B1008091B00081603D
:1007B0008093B00080917A00846080937A00809169
:1007C0007A00826080937A0080917A0081608093C1
:1007D0007A0080917A00806880937A001092C1003C
:1007E000E1EBF0E02491EDE9F0E08491882399F0C9
:1007F00090E0880F991FFC01EA57FF4FA591B49133
:10080000FC01E458FF4F859194918FB7F894EC91D7
:10081000E22BEC938FBFE6EAF0E02491E2E9F0E00E
:1008200084918823C1F090E0880F991FFC01EA575A
:10083000FF4FC591D491FC01E458FF4FA591B491AD
:100840009FB7F8943881822F809583238883EC9119
:10085000E22BEC939FBF83E0809369008DBBE09116
:100860003101F091320182E08083E0912D01F0911D
:100870002E011082E0912F01F09130018FEC8083E6
:1008800010923901E0913501F091360186E08083C4
:10089000E0913301F0913401808180618083E091A7
:1008A0003301F0913401808188608083E0913301CD
:1008B000F0913401808180688083E0913301F09170
:1008C000340180818F7D8083FFCFE1E2F1E01382EC
:1008D000128288EE93E0A0E0B0E084839583A68343
:1008E000B7838AE091E09183808385EC90E09587DF
:1008F000848784EC90E09787868780EC90E0918BEA
:10090000808B81EC90E0938B828B82EC90E0958BD6
:10091000848B86EC90E0978B868B118E128E138ED3
:10092000148E0895BB27FB015527AA27880F991F0E
:10093000AA1FA41710F0A41B83955051B9F7A05D0E
:10094000AA3308F0A95DA193009779F7B111B1938B
:100950001192CB010C94AC04DC01FC01672F719166
:100960007723E1F7329704C07C916D937083629195
:10097000AE17BF07C8F308952F923F924F925F9230
:100980006F927F928F929F92AF92BF92CF92DF929F
:10099000EF92FF920F931F93CF93DF93CDB7DEB704
:1009A000CA1BDB0B0FB6F894DEBF0FBECDBF099498
:1009B0002A88398848885F846E847D848C849B84EF
:1009C000AA84B984C884DF80EE80FD800C811B81FD
:1009D000AA81B981CE0FD11D0FB6F894DEBF0FBE2C
:1009E000CDBFED010895EE0FFF1F0590F491E02DAE
:1009F00009940F931F93CF93DF938230910510F4E6
:100A000082E090E0E091C901F091CA0130E020E07D
:100A1000B0E0A0E0309799F42115310509F44AC0FF
:100A2000281B390B24303105D8F58A819B8161154B
:100A3000710589F1FB0193838283FE0111C040811E
:100A400051810281138148175907E0F0481759076F
:100A500099F4109761F012960C93129713961C93C9
:100A60003296CF01DF91CF911F910F91089500939E
:100A7000C9011093CA01F4CF2115310551F0421775
:100A8000530738F0A901DB019A01BD01DF01F8012C
:100A9000C1CFEF01F9CF9093CA018093C901CDCFA7
:100AA000FE01E20FF31F81939193225031093983A4
:100AB0002883D7CF2091C7013091C801232B41F45F
:100AC00020910201309103013093C8012093C701A6
:100AD00020910001309101012115310541F42DB71C
:100AE0003EB74091040150910501241B350BE09164
:100AF000C701F091C801E217F307A0F42E1B3F0BCA
:100B00002817390778F0AC014E5F5F4F241735077F
:100B100048F04E0F5F1F5093C8014093C701819367
:100B200091939FCFF0E0E0E09CCFCF93DF930097CD
:100B3000E9F0FC01329713821282A091C901B091B1
:100B4000CA01ED0130E020E01097A1F4208131814D
:100B5000820F931F2091C7013091C80128173907D0
:100B600009F061C0F093C801E093C701DF91CF9114
:100B70000895EA01CE17DF07E8F54A815B819E01FF
:100B800041155105B1F7E901FB83EA834991599178
:100B9000C40FD51FEC17FD0761F480819181029687
:100BA000840F951FE90199838883828193819B83B8
:100BB0008A83F0E0E0E012968D919C911397009764
:100BC000B9F52D913C911197CD010296820F931F9B
:100BD0002091C7013091C8012817390739F630979D
:100BE00051F51092CA011092C901B093C801A093A7
:100BF000C701BCCFD383C28340815181840F951F2D
:100C0000C817D90761F44E5F5F4F88819981480FFB
:100C1000591F518340838A819B819383828321154D
:100C2000310509F0B0CFF093CA01E093C9019ECF1E
:100C3000FD01DC01C0CF13821282D7CFB0E0A0E06B
:100C4000E4E2F6E00C94BE048C01009751F4CB0171
:100C50000E94F9048C01C801CDB7DEB7E0E10C9425
:100C6000DA04FC01E60FF71F9C0122503109E2175C
:100C7000F30708F49DC0D901CD91DC911197C617F7
:100C8000D70798F0C530D10530F3CE010497861709
:100C9000970708F3C61BD70B2297C193D1936D9387
:100CA0007C93CF010E949505D6CF5B01AC1ABD0A9B
:100CB0004C018C0E9D1EA091C901B091CA01512C0E
:100CC000412CF12CE12C109731F58091C7019091C6
:100CD000C8018815990509F05CC04616570608F04A
:100CE00058C08091000190910101009741F48DB7A7
:100CF0009EB74091040150910501841B950BE817A4
:100D0000F90708F055C0F093C801E093C701F90155
:100D100071836083A0CF8D919C91119712966C90F6
:100D2000129713967C901397A815B90559F56C0185
:100D300042E0C40ED11CCA14DB0420F1AC014A19F4
:100D40005B09DA011296159780F0628273825183F3
:100D50004083D9016D937C93E114F10471F0D701C4
:100D60001396FC93EE93129776CF22968C0F9D1FCD
:100D7000F90191838083F301EFCFF093CA01E093EF
:100D8000C90169CF4816590608F42C017D01D30129
:100D90009ACFCB010E94F9047C01009749F0AE0183
:100DA000B8010E94DB06C8010E949505870153CF58
:100DB00010E000E050CFFB01DC0102C001900D9279
:100DC00041505040D8F70895FB01DC0101900D928D
:0A0DD0000020E1F70895F894FFCF2A
:100DDA000000CB0180000000000027018700B4005A
:100DEA007401E500C300D70049535220000D0A00E0
:00000001FF
