:100000000C945D000C9485000C9485000C94C9033D
:100010000C943B040C9457030C9485000C948500BD
:100020000C9485000C9485000C9485000C9485003C
:100030000C9485000C9485000C9485000C9485002C
:100040000C94B5020C9485000C9425030C94FF02CB
:100050000C9485000C9485000C9485000C9485000C
:100060000C9485000C9485000000000024002700FB
:100070002A0000000000250028002B0004040404CE
:100080000404040402020202020203030303030342
:10009000010204081020408001020408102001021F
:1000A00004081020000000080002010000030407FB
:1000B0000000000000000000280511241FBECFEF43
:1000C000D8E0DEBFCDBF21E0A0E2B1E001C01D92CB
:1000D000AB3CB207E1F711E0A0E0B1E0E0E6FFE001
:1000E00002C005900D92A032B107D9F710E0CDE51E
:1000F000D0E004C02197FE010E94B605CC35D1079F
:10010000C9F70E945F040C94AE070C940000E1EB69
:10011000F0E02491EDE9F0E09491E9E8F0E0E49179
:10012000EE23C9F0222339F0233001F1A8F4213065
:1001300019F1223029F1F0E0EE0FFF1FEE58FF4FCA
:10014000A591B4912FB7F894EC91811126C09095A8
:100150009E239C932FBF08952730A9F02830C9F023
:10016000243049F7209180002F7D03C0209180002A
:100170002F7720938000DFCF24B52F7724BDDBCFEE
:1001800024B52F7DFBCF2091B0002F772093B000B6
:10019000D2CF2091B0002F7DF9CF9E2BDACFAF9236
:1001A000BF92CF92DF92EF92FF920F931F93CF9364
:1001B000DF936C017B018B01040F151FEB015E01C6
:1001C000AE18BF08C017D10759F06991D601ED915B
:1001D000FC910190F081E02DC6010995892B79F7FA
:1001E000C501DF91CF911F910F91FF90EF90DF90AC
:1001F000CF90BF90AF900895CF93DF93FC014481DF
:100200005581608171818AE291E00E94CF00EC010A
:1002100042E050E068E171E08AE291E00E94CF00A4
:100220008C0F9D1FDF91CF910895FC01538D448D5C
:10023000252F30E0842F90E0821B930B541710F091
:10024000CF96089501970895FC01918D828D98179E
:1002500061F0A28DAE0FBF2FB11D5D968C91928D76
:100260009F5F9F73928F90E008958FEF9FEF0895A7
:10027000FC01918D828D981731F0828DE80FF11D70
:10028000858D90E008958FEF9FEF0895FC01918D8B
:10029000228D892F90E0805C9F4F821B91098F7384
:1002A000992708958AE291E00E94460121E0892B76
:1002B00009F420E0822F089580E090E0892B29F056
:1002C0000E94520181110C9400000895FC01A48D3C
:1002D000A80FB92FB11DA35ABF4F2C91848D90E068
:1002E00001968F739927848FA689B7892C93A0894B
:1002F000B1898C91837080648C93938D848D9813D5
:1003000006C00288F389E02D80818F7D8083089567
:10031000EF92FF920F931F93CF93DF93EC0181E055
:10032000888F9B8D8C8D98131AC0E889F9898081FC
:1003300085FF15C09FB7F894EE89FF896083E8892F
:10034000F98980818370806480839FBF81E090E021
:10035000DF91CF911F910F91FF90EF900895F62EAE
:100360000B8D10E00F5F1F4F0F731127E02E8C8D48
:100370008E110CC00FB607FCFACFE889F98980818D
:1003800085FFF5CFCE010E946601F1CFEB8DEC0F1A
:10039000FD2FF11DE35AFF4FF0829FB7F8940B8FAA
:1003A000EA89FB8980818062CFCFCF93DF93EC0114
:1003B000888D8823B9F0AA89BB89E889F9898C914D
:1003C00085FD03C0808186FD0DC00FB607FCF7CF09
:1003D0008C9185FFF2CF808185FFEDCFCE010E9409
:1003E0006601E9CFDF91CF910895FC018081918171
:1003F000009711F00C94580608950F931F93CF9314
:10040000DF93EC0188819981009759F02A813B8123
:100410002617370730F081E0DF91CF911F910F91C0
:1004200008958B016F5F7F4F0E94E106009759F09E
:10043000998388831B830A832C813D81232B59F761
:10044000FC011082E8CF80E0E7CFEF92FF920F939C
:100450001F93CF93DF936115710541F480E0DF9125
:10046000CF911F910F91FF90EF9008954115510585
:10047000B1F07B01EC010C811D81040F151FB80147
:100480000E94FD01882351F3288139818C819D814F
:10049000B701820F931F0E94A7071D830C8381E081
:1004A000DECFEF92FF920F931F93CF93DF93EC0178
:1004B0007B018A01BA010E94FD01288139818111E5
:1004C00014C02115310519F0C9010E94580619827E
:1004D00018821D821C821B821A82CE01DF91CF916D
:1004E0001F910F91FF90EF9008951D830C83B7012A
:1004F000C9010E94A707F1CFEF92FF920F931F93BC
:10050000CF93DF93CDB7DEB729970FB6F894DEBF50
:100510000FBECDBF8C01862FF8011182108213828D
:100520001282158214824AE09E012F5F3F4F7901AB
:10053000B90190E00E945505F70101900020E9F70C
:100540003197AF014E195F09B701C8010E945102EE
:1005500029960FB6F894DEBF0FBECDBFDF91CF91C5
:100560001F910F91FF90EF9008951F920F920FB679
:100570000F9211242F933F938F939F93AF93BF9329
:100580008091260190912701A0912801B091290125
:100590003091250123E0230F2D3758F50196A11D39
:1005A000B11D209325018093260190932701A093EC
:1005B0002801B09329018091210190912201A091FD
:1005C0002301B09124010196A11DB11D8093210149
:1005D00090932201A0932301B0932401BF91AF9186
:1005E0009F918F913F912F910F900FBE0F901F9071
:1005F000189526E8230F0296A11DB11DD2CF1F9298
:100600000F920FB60F9211242F933F934F935F9346
:100610006F937F938F939F93AF93BF93EF93FF93CA
:100620008AE291E00E946601FF91EF91BF91AF9144
:100630009F918F917F916F915F914F913F912F91FA
:100640000F900FBE0F901F9018951F920F920FB62C
:100650000F9211242F938F939F93EF93FF93E09129
:100660003A01F0913B018081E0914001F09141011C
:1006700082FD1BC09081809143018F5F8F73209119
:100680004401821741F0E0914301F0E0E65DFE4F46
:10069000958F80934301FF91EF919F918F912F91BF
:1006A0000F900FBE0F901F9018958081F4CF1F926E
:1006B0000F920FB60F9211242F933F934F935F9396
:1006C0006F937F938F939F93AF93BF93EF93FF931A
:1006D000CF93DF93CDB7DEB72C97DEBFCDBF909120
:1006E000200181E0911180E0809320016091200140
:1006F000CE0107960E947C021A8219821C821B82FC
:100700001E821D8244E050E06BE171E0CE01019653
:100710000E9451024B855C856F817885CE010196E0
:100720000E94250281110CC089819A81009711F0E5
:100730000E9458061A8219821E821D821C821B8208
:10074000CE0101960E94FC00CE0101960E94F501A7
:10075000CE0107960E94F501809120010E9487003A
:100760002C960FB6F894DEBF0FBECDBFDF91CF91B0
:10077000FF91EF91BF91AF919F918F917F916F9179
:100780005F914F913F912F910F900FBE0F901F904F
:1007900018951F920F920FB60F9211242F933F932B
:1007A0004F935F936F937F938F939F93AF93BF9379
:1007B000EF93FF93CF93DF93CDB7DEB72C97DEBFD8
:1007C000CDBF9091200181E0911180E080932001C4
:1007D000809120010E94870060912001CE01079640
:1007E0000E947C021A8219821C821B821E821D8238
:1007F00044E050E06BE171E0CE0101960E945102AD
:100800004B855C856F817885CE0101960E9425021B
:1008100081110CC089819A81009711F00E945806BD
:100820001A8219821E821D821C821B82CE010196B1
:100830000E94FC00CE0101960E94F501CE010796B0
:100840000E94F5012C960FB6F894DEBF0FBECDBF07
:10085000DF91CF91FF91EF91BF91AF919F918F91D8
:100860007F916F915F914F913F912F910F900FBEAC
:100870000F901F9018951F920F920FB60F92112490
:100880002F933F934F935F936F937F938F939F9398
:10089000AF93BF93EF93FF930E94C903FF91EF9132
:1008A000BF91AF919F918F917F916F915F914F9188
:1008B0003F912F910F900FBE0F901F901895789435
:1008C00084B5826084BD84B5816084BD85B5826055
:1008D00085BD85B5816085BD80916E008160809306
:1008E0006E0010928100809181008260809381006F
:1008F000809181008160809381008091800081607F
:10090000809380008091B10084608093B1008091D9
:10091000B00081608093B00080917A008460809301
:100920007A0080917A00826080937A0080917A00C8
:10093000816080937A0080917A00806880937A0049
:100940001092C100EDE9F0E02491E9E8F0E0849133
:10095000882399F090E0880F991FFC01E859FF4F18
:10096000A591B491FC01EE58FF4F859194918FB7FA
:10097000F894EC91E22BEC938FBFE7E9F0E024913F
:10098000E3E8F0E084918823C1F090E0880F991F9C
:10099000FC01E859FF4FC591D491FC01EE58FF4F7F
:1009A000A591B4919FB7F8943881822F80958323C5
:1009B0008883EC91E22BEC939FBF8FE780936C00D0
:1009C0008DEF80936D001BBA87E080936800789468
:1009D000E0913A01F0913B0182E08083E0913601A1
:1009E000F09137011082E0913801F09139018FECDC
:1009F000808310924201E0913E01F0913F0186E038
:100A00008083E0913C01F0913D0180818061808391
:100A1000E0913C01F0913D01808188608083E0910C
:100A20003C01F0913D01808180688083E0913C0130
:100A3000F0913D0180818F7D8083C0E0D0E02097E0
:100A4000F1F30E9452018823D1F30E940000F7CFF6
:100A5000EAE2F1E01382128288EE93E0A0E0B0E0D7
:100A600084839583A683B7838AE091E09183808312
:100A700085EC90E09587848784EC90E09787868763
:100A800080EC90E0918B808B81EC90E0938B828B5B
:100A900082EC90E0958B848B86EC90E0978B868B34
:100AA000118E128E138E148E0895BB27FB015527CD
:100AB000AA27880F991FAA1FA41710F0A41B8395BB
:100AC0005051B9F7A05DAA3308F0A95DA193009732
:100AD00079F7B111B1931192CB010C946F05DC0140
:100AE000FC01672F71917723E1F7329704C07C9165
:100AF0006D9370836291AE17BF07C8F308952F926C
:100B00003F924F925F926F927F928F929F92AF929D
:100B1000BF92CF92DF92EF92FF920F931F93CF93EA
:100B2000DF93CDB7DEB7CA1BDB0B0FB6F894DEBF81
:100B30000FBECDBF09942A88398848885F846E84A7
:100B40007D848C849B84AA84B984C884DF80EE80F1
:100B5000FD800C811B81AA81B981CE0FD11D0FB6FA
:100B6000F894DEBF0FBECDBFED010895EE0FFF1F5D
:100B70000590F491E02D09940F931F93CF93DF9389
:100B80008230910510F482E090E0E091C901F0918B
:100B9000CA0130E020E0B0E0A0E0309799F42115E0
:100BA000310509F44AC0281B390B24303105D8F52A
:100BB0008A819B816115710589F1FB019383828391
:100BC000FE0111C0408151810281138148175907EC
:100BD000E0F04817590799F4109761F012960C93BA
:100BE000129713961C933296CF01DF91CF911F91EC
:100BF0000F9108950093C9011093CA01F4CF2115F4
:100C0000310551F04217530738F0A901DB019A0171
:100C1000BD01DF01F801C1CFEF01F9CF9093CA0107
:100C20008093C901CDCFFE01E20FF31F8193919311
:100C30002250310939832883D7CF2091C7013091C1
:100C4000C801232B41F4209102013091030130931C
:100C5000C8012093C70120910001309101012115A5
:100C6000310541F42DB73EB7409104015091050183
:100C7000241B350BE091C701F091C801E217F3077F
:100C8000A0F42E1B3F0B2817390778F0AC014E5FFC
:100C90005F4F2417350748F04E0F5F1F5093C80170
:100CA0004093C701819391939FCFF0E0E0E09CCF08
:100CB000CF93DF930097E9F0FC0132971382128201
:100CC000A091C901B091CA01ED0130E020E0109778
:100CD000A1F420813181820F931F2091C7013091AF
:100CE000C8012817390709F061C0F093C801E093E3
:100CF000C701DF91CF910895EA01CE17DF07E8F52C
:100D00004A815B819E0141155105B1F7E901FB83E1
:100D1000EA8349915991C40FD51FEC17FD0761F47F
:100D2000808191810296840F951FE90199838883C0
:100D3000828193819B838A83F0E0E0E012968D911B
:100D40009C9113970097B9F52D913C911197CD0186
:100D50000296820F931F2091C7013091C801281776
:100D6000390739F6309751F51092CA011092C9012E
:100D7000B093C801A093C701BCCFD383C283408185
:100D80005181840F951FC817D90761F44E5F5F4FDB
:100D900088819981480F591F518340838A819B81A3
:100DA000938382832115310509F0B0CFF093CA01F6
:100DB000E093C9019ECFFD01DC01C0CF13821282F6
:100DC000D7CFB0E0A0E0E7EEF6E00C9481058C010F
:100DD000009751F4CB010E94BC058C01C801CDB72E
:100DE000DEB7E0E10C949D05FC01E60FF71F9C01C6
:100DF00022503109E217F30708F49DC0D901CD91C3
:100E0000DC911197C617D70798F0C530D10530F39C
:100E1000CE0104978617970708F3C61BD70B2297B6
:100E2000C193D1936D937C93CF010E945806D6CF86
:100E30005B01AC1ABD0A4C018C0E9D1EA091C9012C
:100E4000B091CA01512C412CF12CE12C109731F5B5
:100E50008091C7019091C8018815990509F05CC07F
:100E60004616570608F058C0809100019091010184
:100E7000009741F48DB79EB7409104015091050150
:100E8000841B950BE817F90708F055C0F093C801CB
:100E9000E093C701F90171836083A0CF8D919C918C
:100EA000119712966C90129713967C901397A81531
:100EB000B90559F56C0142E0C40ED11CCA14DB041B
:100EC00020F1AC014A195B09DA011296159780F0FE
:100ED0006282738251834083D9016D937C93E114C4
:100EE000F10471F0D7011396FC93EE93129776CF2D
:100EF00022968C0F9D1FF90191838083F301EFCF20
:100F0000F093CA01E093C90169CF4816590608F465
:100F10002C017D01D3019ACFCB010E94BC057C013D
:100F2000009749F0AE01B8010E949E07C8010E94D7
:100F30005806870153CF10E000E050CFFB01DC01E1
:100F400002C001900D9241505040D8F70895FB0126
:100F5000DC0101900D920020E1F70895F894FFCF95
:100F60000000CB018000000000008801CF001501C7
:100F7000D5014601240138010D0A004953522000D1
:00000001FF
